:020000040800F2
:10000000E045002025030008259900086D8F0008B1
:10001000219900088D4B000801A500080000000090
:100020000000000000000000000000009999000896
:10003000094E00080000000095990008F199000899
:100040003F0300083F0300083F0300083F03000888
:100050003F0300083F0300083F0300083F03000878
:100060003F0300083F0300083F0300083F03000868
:10007000F14B00083F030008014C00083F03000853
:100080003F0300083F030008F1490008C14B000886
:10009000914B0008A14B0008B14B00083F0300083A
:1000A000CD9A0008FD9A0008ED9A0008DD9A000834
:1000B0003F0300083F0300080D9B00083F030008B2
:1000C0003F0300083F0300083F0300083F03000808
:1000D0003F030008D1A400083F030008E1A4000882
:1000E0003F0300083F0300083F0300083F030008E8
:1000F0003F0300083F0300083F0300083F030008D8
:100100003F0300083F0300083F0300083F030008C7
:100110003F0300083F0300083F0300083F030008B7
:10012000114C0008214C0008314C0008414C0008DB
:100130003F0300083F0300083F0300083F03000897
:10014000D14B0008E14B00083F0300083F030008C3
:100150003F030008514C0008614C0008F1A400085E
:100160003F0300083F0300083F0300083F03000867
:100170003F0300083F0300083F03000800000000A1
:100180003F0300083F03000800F002F800F0BAF84F
:1001900014A696E8000CB244B344DA4501D100F04D
:1001A000B1F8BAE80F000FA696E83000A5EB0405F9
:1001B00004EB0607AAEB0704A7F101074FEA1515A0
:1001C0004FEA3414A4F10104AC4201D300F09AF8D0
:1001D00013F0010F18BFFB1A43F0010300F001F800
:1001E000DBE7184768DC010088DC0100103A24BF17
:1001F00078C878C1FAD8520724BF30C830C144BF8C
:1002000004680C6070470000704700000023002461
:1002100000250026103A28BF78C1FBD8520728BF16
:1002200030C148BF0B6070476E2901F033847029DC
:1002300001F0858766291BF07C8565291BF079858F
:1002400067291BF0768561291BF0758503681B0AF9
:1002500028BF41F08001692901F0E083642901F0A1
:10026000DD83752901F0DA836F2901F0138778297E
:1002700001F05187E92901F0AD86E42901F0AA8651
:10028000F52901F0A786EF2901F01087F82901F080
:1002900050870368DB0928BF41F08001632903F020
:1002A0002384732903F02884E32903F04584F32988
:1002B00003F04A84002070471FB51BF025FD9DE820
:1002C000030001F0A9FA01F087FA040000200021E0
:1002D0001BF0E6FA401C6060002000211BF00CFBC4
:1002E000E060002000211BF0F1FA206102F064FFC1
:1002F00000F0FEF81FBD10B5002003F0A1F802F0D9
:10030000C4FF10BD03F029F91146FFF7D5FF1AF01D
:1003100051FC04F07AF803B4FFF7EDFF03BC03F0DF
:1003200015F900000948804709480047FEE7FEE745
:10033000FEE7FEE7FEE7FEE7FEE7FEE7FEE7FEE795
:1003400004480549054A064B70470000B99A000861
:1003500089010008E0150020E0450020E02500208C
:10036000E025002053EA020C00F069802DE9F04BF3
:100370004FF00006002B1FBFB3FA83F503FA05F414
:1003800024FA05F65E4012BF1643B2FA82F502FA6D
:1003900005F4C5F120051EBF22FA05FC44EA0C0451
:1003A000203556EA044C4FEA144418BF641C4FF041
:1003B00000084FF00009904271EB030C39D300297B
:1003C00019BFB1FA81F701FA07F6B0FA80F700FA1F
:1003D00007F6C7F120071EBF20FA07FC46EA0C0605
:1003E0002037B6FBF4FCA7EB0507103F07F01F0B07
:1003F000CBF120062CFA06F60CFA0BFB44BFB346F1
:100400000026202FA4BF5E464FF0000B5BEA060CCF
:1004100008BF4FF0010B19EB0B0948EB0608ABFBCB
:10042000027C06FB02CC0BFB03CCC01B71EB0C0166
:10043000C1E70B46024641464846BDE8F08B13B57E
:10044000084318BF4FF0FF300146AFF30080BDE80E
:100450001C4070470B460146184600F09FBD10B582
:10046000431C02E010F8011B71B18107FAD14FF073
:10047000013202C88C1A8C4314EAC211F9D0C01A96
:100480000A0603D0C01E10BDC01A10BD0A0401D058
:10049000801E10BD0902FCD0401E10BD4FF00002AE
:1004A00000B5134694469646203922BFA0E80C506A
:1004B000A0E80C50B1F12001BFF4F7AF090728BF45
:1004C000A0E80C5048BF0CC05DF804EB890028BFC1
:1004D00040F8042B08BF704748BF20F8022B11F0EA
:1004E000804F18BF00F8012B704770477047704766
:1004F00008487CB57844009007487844009C05463D
:10050000019004E02046016808448047241DAC4265
:10051000F8D17CBD30DC010036DC010010B501F003
:100520005BF9001D10BD00BF79B3010000487047A2
:100530006401002070B5064601F04AF9056806F12D
:100540000B0020F00704B4429CBF002070BD2B4676
:100550006A68BAB11068A04210D304F10801884259
:100560003CBF5068586007D351681019416011684A
:10057000091B016058601460101D70BD134652685D
:10058000002AE7D12146284601F032F90028DED1C1
:1005900070BD70B50446051F01F01AF90068002C03
:1005A00014BF446870BD002C18BFAC423CBF20464D
:1005B0006468F8D301680A18AA4218BF456003D1DD
:1005C0002A6805461144016028684119A1421CBFF0
:1005D0006C6070BD6168696021680844286070BD06
:1005E00070B50D460646041F01F0F2F80268BDB171
:1005F000DEB105F10B0020F00701A9423CBF00204D
:1006000070BD23688B4238BF506813D35A1A082A2A
:1006100036D3601840F8042B2160FFF7BAFF2FE0B3
:100620003046FFF7B6FF002070BD2846BDE8704099
:10063000FFF780BF002818BFA0423CBF02464068B9
:10064000F8D303EB040C84451CD1D0F800C06344FC
:10065000994217D8A3EB010CBCF1080F0DD3D0F8C9
:1006600004C06318C3F804C0D4F800C00068604434
:10067000401A18602160536002E0236040685060B7
:10068000201D70BD2846FFF755FF050008D03146F4
:100690002068021F284600F068FD201DFFF779FF43
:1006A000284670BD2DE9F04791460C46804601F082
:1006B0008FF80768604234EA000001D1042C02D2AE
:1006C0000520BDE8F087601E40F0070609F10B0029
:1006D00020F007054D4539D93B467A6882B3146846
:1006E000101D404206EA000C644525D9A4EB0C001D
:1006F000854221D8BCF1000F0BD01046016862443E
:10070000A1EB0C01116041685160C0F800C0586055
:100710000346116805F10800814205D35019491BB1
:10072000016015605860034652F8040F58600020BD
:10073000C8F80020BDE8F08713465268002ACED1E1
:100740002946384601F054F80028C5D10620BDE8F6
:10075000F08710B501F095F800F0080010BD2DE904
:10076000F0410F46134615460A4606460021084644
:1007700001F0D4F80446401CFFF7DCFE306030B1D5
:10078000611C2B463A46BDE8F04101F0C7B84FF076
:10079000FF30BDE8F08100000FB41CB50C0007AAC3
:1007A000009007D04142A14202D32044401E01E004
:1007B0004FF0FF30074B7B4469460190069801F0EB
:1007C00090FB0021002C01D0009A11701CBC5DF838
:1007D00014FB00004F1700007CB51D4616460C00A8
:1007E000009007D04142A14202D32044401E01E0C4
:1007F0004FF0FF30064B7B442A4669460190304655
:1008000001F06FFB002C02D0009A002111707CBD1A
:100810000F1700002DE9F05F894604464FF0000AEB
:10082000DFF874B1FB44C0F820A02046E168884797
:10083000002874D0252806D0D4E901219047206AE9
:10084000401C2062F1E700265F462046E1688847A9
:100850002028054607DB312D05D2781910F8200C29
:1008600008B10643F1E7B00701D526F00406C4F845
:100870001CA00027C4F818A02A2D09D028461AF079
:1008800062FF38B304EB8708303DC8F8185019E010
:1008900059F8041B204604EB87029161E168884700
:1008A000012F054618D1E069002820DA26F020063D
:1008B0001DE0D8F8180000EB800005EB4000303850
:1008C000C8F818002046E168884705461AF03BFF43
:1008D0000028EED1012F0AD02E2D08D12046E16844
:1008E00088477F1C0546022F46F02006C4DBA0691E
:1008F000002803DA404246F00106A061F00701D06B
:1009000026F010066C2D0BD0682D09D04C2D39D057
:100910006A2D35D0742D35D07A2D33D016E038E0DD
:10092000E1682F4620468847B842054609D16C2F1A
:1009300026D04FF48060E16806432046884705468C
:1009400004E06C2F1AD04FF4807006430DB3A5F16C
:100950004100192802D8203546F400664A46294647
:10096000204626604E46FFF75FFC80B101280BD081
:10097000F61D26F0070000F1080956E74020E4E7DD
:100980008020D8E70020D6E706F104094DE7284685
:1009900052E7206ABDE8F09F0EB6010000B58DB0A9
:1009A000099000920B904FF0FF300A9000200C90BD
:1009B000054878440690054878446A46079009A897
:1009C00002F00CF80DB000BD472000005F200000D1
:1009D0000FB400B58DB010A9099000910B904FF0A5
:1009E000FF300A9000200C90064878440690064894
:1009F00078446A4607900F9909A801F0EFFF0DB0FF
:100A00005DF814FB0F2000002720000002F072B8F0
:100A100002F0B8B870B50446C068810713D08006EC
:100A200001D5A56A04E0A169606808442169451AF6
:100A3000204602F07DFB002206462946204600F0B3
:100A40001BF8304670BD002070BD70B510B1BDE818
:100A50007040DFE70025074C6E1E07E02046FFF7D9
:100A6000D9FF00B13546206D20F00104002CF5D1EE
:100A7000284670BD680000202DE9F0410446164666
:100A80000D464769007B80072ED0384600F087FE70
:100A900050BB3EB3012E02D0022E25D104E02046E9
:100AA00000F066F805441DE0384600F086FEE16877
:100AB000002841F01001E16005DA204602F0F8FA62
:100AC0000120BDE8F081C9030BD56268E16A91425B
:100AD00000D81146A26911442269891A814200DDB9
:100AE00008460544002D01DA0220EAE7E16A606861
:100AF000E268814206D29103E06203D522F400311C
:100B000041F01002A6690027AE4213DCE16A81427F
:100B100001D90B4600E0034603EB060C2369ACEB5E
:100B2000030CAC4506DD814201D98C4600E08446C9
:100B30009C4505D1A760276042F02000A5620DE02A
:100B4000AD1BE669AE1B8142A66000D90846C01AFB
:100B5000281A20605819606022F0200003490840DC
:100B6000E060002084F84870ABE70000BFCFD7FFFB
:100B700010B50146C268900703D0900607D5886A71
:100B80000AE0FFF7D3FC01210160881E10BD8B69CC
:100B9000486818440B69C01A91F848301BB191F8A5
:100BA0004910401A10BD1103FCD50028FADD401E83
:100BB00010BD1AF0CFBD0000CA68431C0FD00D4B0A
:100BC0001A420CD1D3070AD081F825004B680B6379
:100BD00000238B6012F0C06F0B6003D004E04FF075
:100BE000FF30704742F00072034B1A40034B1A4328
:100BF000CA60704780200800BFFFDFFF0010480078
:100C00002DE9F0410C461646070047D0104600F08B
:100C10006FF82078611C61280AD0722802D07728EA
:100C20003CD102E00125002405E00225042402E075
:100C3000082448F2020511F8010B2B2806D062287F
:100C400009D011F8010C74280AD00BE045F0030517
:100C500044F00204EFE745F0040544F00104EAE73C
:100C600044F010043846214600F07AFD411C15D0AE
:100C70000021316171604FF40071F560F1617061C4
:100C8000200704D5304602220021FFF7F5FE306D23
:100C900040F0010030653046BDE8F0810020FBE700
:100CA0002DE9F0410D460646104C206DC10704D0D9
:100CB000410804D020F00104F7E722460EE054205A
:100CC000FFF738FC07000ED0206D47F00101084304
:100CD000542120653846FFF7E1FB3A462946304665
:100CE000BDE8F0418CE70020D6E700006800002056
:100CF0002DE9F04704464FF0FF380026C568D4E9D7
:100D00000497A80718D0204602F012FA384600F0DF
:100D100031FD002800DA4646280502D54846FFF78F
:100D200038FC4C212046FFF7B9FB206D20F0010074
:100D300020653046BDE8F0874046FBE72DE9FE43DD
:100D40000E461746804600210846AFF30080054650
:100D50000020009001905EB130784FF0FF3900B173
:100D6000AFB11DB1D5E90001CDE9000100240CE0CF
:100D70000020BDE8FE83315D6A46641C02A802F0D3
:100D800010FB411C03D0012803D0BC42F3D34846DA
:100D9000EFE71DB1DDE90001C5E90001B8F1000F81
:100DA00003D0BDF80810A8F80010BDF8080000280E
:100DB000DFD02046DDE770B50C4605460AB1104687
:100DC00003E004210020AFF3008022462946BDE85D
:100DD00070400346002000F03DB82DE9F84F9146E1
:100DE000884605464FF000045FEA030A0E682BD1DF
:100DF00007210020AFF30080824625E016F8011B92
:100E00005246684602F0CDFA0746401C0FD0BF1C80
:100E10001AD01DB1BDF8000025F81400BDF800007F
:100E2000641C58B1002DE9D0C8F800600EE0FFF74F
:100E30007DFB042101603846BDE8F88F15B1002123
:100E4000C8F80010601EF7E7002DD7D04C45D5D369
:100E50002046F1E702F04CBA02F086BA2DE9F84FCD
:100E60009B469046894605460024DDF828A00E687A
:100E70005FEA0A0033D10921AFF3008082462EE0F9
:100E8000B8F1000F1AD05246684616F8011BA8F1B7
:100E9000010802F086FA0746401C13D0BF1C1ED082
:100EA0001DB1BDF8000025F81400BDF80000641C59
:100EB00078B1002DE4D0C9F8006012E09DB1C9F806
:100EC000006010E0FFF732FB042101603846BDE806
:100ED000F88F15B10021C9F80010601EF7E7002D4A
:100EE000CED05C45CCD32046F1E72DE9FF4F9146AB
:100EF0008A46804683B00024109F0D68A7BB0A2154
:100F00000020AFF3008007462EE017B1D7E900B10B
:100F100002913A466846298802F063FA0646401C68
:100F20000BD0B8F1000F16D00698311981420CD9B8
:100F3000EFB10299C7E900B119E0FFF7F7FA042110
:100F40000160304607B0BDE8F08F08EB0400324680
:100F5000694600F083F82888344450B1AD1CB8F1DC
:100F6000000F01D0CAF80050B9F10109CDD22046D6
:100F7000E8E7641EB8F1000FF9D00021CAF80010AC
:100F8000F5E710B5FFF7CAFA006890F801110129DA
:100F900001D0012010BDD0F80B0110BD2DE9F041AA
:100FA000074615460E461020FFF7C4FA04000AD083
:100FB0006760C4E9026500F013FC01682160046009
:100FC0000020BDE8F0810120FBE740EA010310B5F5
:100FD0009B070FD1042A0DD310C808C9121F9C42C9
:100FE000F8D020BA19BA884201D9012010BD4FF0BB
:100FF000FF3010BD1AB1D30703D0521C07E0002008
:1010000010BD10F8013B11F8014B1B1B07D110F864
:10101000013B11F8014B1B1B01D1921EF1D1184667
:1010200010BD01E0801C521E1AB103888B42F9D119
:10103000704700207047002101E0801C491C028895
:10104000002AFAD108467047CBB22AB101788B4208
:1010500003D0401C521EF9D100207047032A40F2F1
:10106000308010F0030C00F0158011F8013BBCF14A
:10107000020F624498BF11F801CB00F8013B38BF62
:1010800011F8013BA2F1040298BF00F801CB38BF70
:1010900000F8013B11F0030300F06780083AC0F04C
:1010A000088051F8043B083A51F804CBA0E8081036
:1010B000F5E7121D5CBF51F8043B40F8043BAFF369
:1010C0000080D20724BF11F8013B11F801CB48BFC3
:1010D00011F8012B24BF00F8013B00F801CB48BFF9
:1010E00000F8012B7047431A28BF9A427FF6B6AF2B
:1010F00010441144032A40F2268010F0030F1EBF53
:1011000011F8013D521E00F8013D10F0030F7FF46D
:10111000F6AF11F0030300F06D80083AC0F00B80C9
:1011200051F8043D083A51F804CD40F8043D40F828
:1011300004CDFFF7F3BF121D5CBF51F8043D40F82A
:10114000043DAFF30080D20724BF11F8013D11F830
:1011500001CD48BF11F8012C24BF00F8013D00F873
:1011600001CD48BF00F8012C704710B5203AC0F0FF
:101170000B80B1E81850A0E81850B1E81850A0E86A
:101180001850203ABFF4F5AF5FEA027C24BFB1E803
:101190001850A0E8185044BF18C918C0BDE8104046
:1011A0005FEA827C24BF51F8043B40F8043B08BF4F
:1011B0007047D20728BF31F8023B48BF11F8012B16
:1011C00028BF20F8023B48BF00F8012B7047431AA4
:1011D00028BF9A427FF6C9AF1044114410F0030FA4
:1011E0001EBF11F8013D521E00F8013D10F0030F23
:1011F0007FF4F6AF103AC0F00A8010B531E918500C
:1012000020E91850103ABFF4F9AFBDE81040530779
:1012100024BF31E9081020E9081044BF51F8043D0B
:1012200040F8043D12F0030F08BF7047D20728BFF3
:1012300031F8023D48BF11F8012C28BF20F8023DCB
:1012400048BF00F8012C704702F0FF0343EA032275
:1012500042EA024200F002B84FF000020429C0F056
:10126000128010F0030C3FF41BA9CCF1040CBCF16C
:10127000020F18BF00F8012BA8BF20F8022BA1EB2A
:101280000C01FFF70DB95FEAC17C24BF00F8012B08
:1012900000F8012B48BF00F8012B70470000000048
:1012A00030B44FF0013C50F8042B51F8043BCCFA19
:1012B00052F4D51A20D1FCB950F8042B51F8043B54
:1012C000CCFA52F4D51A17D1B4B950F8042B51F80E
:1012D000043BCCFA52F4D51A0ED16CB950F8042B59
:1012E00051F8043BCCFA52F4D51A05D1002CDAD0CF
:1012F00030BC4FF00000704729BAB1FA81F111F00B
:101300001801D1F120008440F2D1CA40CB4012F044
:10131000FF0213F0FF0330BCD01A704770B50546CA
:1013200001B90721541A241DB4F5B67F09DD2868D8
:1013300000F05DF9A04204DC2868401C2860012010
:1013400070BD002C05DA2868401E286000F04FF9B7
:101350000444072094FBF0F0401C70BD2DE9F04FD1
:101360001F4615468B468246002689B000F034FAA7
:10137000D0F810800024BBF1000F70D015F8010BDD
:1013800010B125280DD10FE024B1641E06A850F835
:101390002450F3E7002130460AF8061009B0BDE8F2
:1013A000F08F0AF80600C7E0E94615F8010B592846
:1013B00070D023DC49286ED014DC44286DD008DCC2
:1013C0002528EED041283ED0422849D043282CD1B0
:1013D00056E04528E9D0462869D0472876D04828E5
:1013E00023D17AE04D380C281FD2DFE800F0881EA8
:1013F000061E1E9BA0A9B3B5C1CFD6E75A38212837
:1014000013D2DFE800F0111212121212121A26374C
:10141000455012592612741212797E1280128912C6
:1014200096A212B3BDCB1100A8E725200AF806004A
:10143000761C5E4513D26D1EA0E7D8F80010BA697D
:10144000D8F8240011E0D8F80410BA69D8F82800B8
:101450000BE0D8F808103A69D8F82C0005E0B2E0A3
:10146000D8F80C103A69D8F8300002FB001101EBF3
:101470000809AAE006A840F82450D8F818108AE015
:101480007969642091FBF0F21332484668A192E03A
:10149000FA6889E08AE022E0FFE706A840F82450D5
:1014A00065A5641C6AE7FA6866A1484683E006A859
:1014B00040F8245064A5F4E7384600F0ADF8642104
:1014C00090FBF1F201FB120258E0FFE7384600F012
:1014D000A3F802465FA168466DE0BA6864E0B868A8
:1014E0000C210B3090FBF1F201FB120205E0FA69CE
:1014F00059A14846521C5EE03A694DA1F9E77A6865
:1015000052E00A2116E0B8680C2802DAD8F8101068
:10151000ADE7D8F81410AAE706A840F82450D8F888
:10152000341038E006A840F824504DA5B9E73A68D1
:101530003AE009210AF80610761C5E45B2D342E073
:1015400006A840F8245048A5ABE7BA6902B90722BB
:1015500048A1AAE700210CE0786900F26C700890BD
:10156000D7E9061208A8FFF7D9FE06E0BA69EFE747
:101570000121D7E9062000F02EF802462CA1AAE7A7
:1015800006A840F82450D8F81C1004E006A840F83B
:101590002450D8F8201001EB080582E7796964200F
:1015A00091FBF0F200FB121221A17EE77A69484616
:1015B00028A102F26C7200F09BF906E00AF806001E
:1015C000761C5E4501D30020E8E619F8010B0028DF
:1015D0003FF4DFAEF2E7511A00D5C91D401A01D51C
:1015E00000207047072190FBF1F0401C70478107F5
:1015F0000CD1642190FBF1F201FB120151B94FF4BF
:10160000C87190FBF1F201FB120018B1002000F24A
:101610006D1070470120FAE708B5416901F26C715D
:101620000091D0E906126846FFF778FE009808BDE1
:10163000252E326400000000256D2F25642F2579AA
:10164000000000002532640025592D256D2D2564EC
:101650000000000025640000252E33640000000017
:1016600025483A254D00000025483A254D3A255396
:1016700000000000252E31640000000070472DE9B5
:10168000FC470E4681466F4601F138020146384656
:1016900001F0A7FE04004FF0FF3824D5FEF746FF07
:1016A000042101600CE0B568002D0CDC314638786F
:1016B000002201F00BFC401C02D0641E7F1C12E0D3
:1016C0004046BDE8FC87A54200DD254639462A464E
:1016D0007068FFF7C3FC70682F4428447060B068DE
:1016E000401B641BB060002CDDDC4846E9E701F0DC
:1016F000C9BE0000421C0DD0CA6812F4025F09D1B5
:10170000D20707D091F84820012A03D805D191F8D3
:1017100049303BB94FF0FF3070471AB94FF0000322
:1017200081F8493001EB420302F1010281F84820BF
:10173000A3F84000CA6812F0C06F02D142F0806284
:10174000CA60064B42EA030222F04002CA600A68FD
:10175000002AE1DD52420A6070470000001040009C
:101760000EB5CDE90001FEF77AFE02906946012030
:10177000ABBE0EBD08B5694600900220ABBE08BDE9
:101780001FB58DE8070069460520ABBE04B010BD4B
:101790001FB58DE80F0069460620ABBEF6E708B519
:1017A000694600900920ABBE08BD1CB5CDE900011B
:1017B00069460A20ABBE1CBD704708B5694600905B
:1017C0000C20ABBE08BD000000487047640100203B
:1017D000004870476C0100200048704784010020D9
:1017E000004870479C010020704770477047704761
:1017F00038B504460A4600206946AFF30080002849
:1018000008BF38BD02460099204601F0CBFE0120FA
:1018100038BD012002F010BEF8B5AFF300800546D8
:1018200000200C460C2000BF0646A819A0420DD986
:10183000324669460020AFF30080070008BF02F07F
:10184000FBFD0098A04218BF0546C419FFF7C0FF72
:1018500005600746F01D20F007004619284600F0F5
:101860000AF8B44208BFF8BDA21B31463868BDE88B
:10187000F84001F097BE00210160416070470C20E4
:10188000704710B50446FF2801D9002010BDFEF7AF
:1018900045FE0068005D10F0980F03D0C10701D12C
:1018A00040F4806010F4846F01D040F4006010F0C8
:1018B000BA0F01D040F4807010F0BE0F01D040F498
:1018C0000070810604D5010602D440F0800001E0DA
:1018D00020F02000C10701D0410601D5092CD5D147
:1018E00040F4805010BD0B460146184602F008B97E
:1018F0000FB41CB5084B06AA7B44694600900598B6
:1019000000F0EFFA04460020694602F09DF82046F8
:101910001CBC5DF814FB00004D2100007CB51D4689
:1019200016460C00009007D04142A14202D3204449
:10193000401E01E04FF0FF30064B7B442A466946CB
:101940000190304600F0CDFA002C02D0009A002120
:1019500011707CBDCB05000070B504468569006838
:10196000C10601D5302600E02026C00707D070BD93
:10197000D4E9012130469047206A401C20626D1E48
:10198000F6D570BD70B5044685690078C00707D1EB
:1019900070BDD4E9012120209047206A401C2062BC
:1019A0006D1EF6D570BD09684A0501D540B2704775
:1019B000C905FCD500B2704709684A0501D5C0B217
:1019C0007047C905FCD580B2704770B50C46054616
:1019D000012A05D02878800600D5EA69002302E0B4
:1019E000012305E05B1C934202D2E05C0028F9D1A0
:1019F000A869E618C01AA861286A1844286228460F
:101A0000FFF7AAFF04E0D5E9012114F8010B904784
:101A1000B442F8D32846FFF7B5FF70BD2DE9F04179
:101A20000646002410687529314616A510D0FFF728
:101A3000BAFF002802DA404213A507E031688A079E
:101A400001D512A502E0490704D511A5012401E042
:101A5000FFF7B2FF00210A2206F1240709E0B0FBDC
:101A6000F2FCB0FBF2F302FB1C0030307854184655
:101A7000491C0028F3D123462A463046BDE8F041F0
:101A800001F00BBE000000002D0000002B00000044
:101A90002000000011680268006A530501D5087033
:101AA0000AE0D30501D5088006E0130603D5C21766
:101AB000C1E9000200E00860012070472DE9FF4FF6
:101AC0000C461E464FF0FF378BB0D2E90001DDF81F
:101AD00060800A908A46C1F30A5505B93D46002147
:101AE00008464FF00000BAF1000F00F4400005DA9C
:101AF00000EB80004FF4400101EA50004FEA90599A
:101B0000B9F1010F00DDB9460A9850EA4A000ED03B
:101B100044F61050A5F2FF3545432F14B8F1000FDD
:101B20001ED07542291E1EDDC9F100021CE0B8F16D
:101B3000010F4FF0000001D0302103E0F24305E037
:101B40002154401CB042FBDB3046002200212154CE
:101B50000B99C1F80880C1E900200FB0BDE8F08FF3
:101B6000BD1B6D1CDEE74A4600DA694206A802F09A
:101B700027FA06AB93E8070003AB83E8070050465B
:101B80000A9919F06BF88DE80700A0F500501F388E
:101B900000900398002D0ADD42F21F014A460844D6
:101BA000002303A90390684619F016FB09E0A0F58D
:101BB00000504A461F38002303A90390684619F0D5
:101BC00035FB8DE807000004000C03D04FF0FF3018
:101BD000410800E01046B8F1000F03D00022009247
:101BE00015461EE0751E05D401F009FD3032625520
:101BF0006D1EF9D5B3460122084302D000227F1C96
:101C000004E02078302801D100227F1E002A0997A5
:101C100084D01DE0112D07DA01F0F1FC303262555D
:101C20006D1C50EA0102F5D1084302D00098C8B1FA
:101C30000EE00021681E05E0235C625C63542254C0
:101C4000401E491C8142F7DBAB46A81B401E099091
:101C5000002004F80B000B98099AC0F80880C0E92E
:101C6000002B7AE711264FF0000857E72DE9F04FD7
:101C700088460446D21D22F0070191B0D1E9000147
:101C8000CDE90A0119F030FC02460B98C00F01D0D3
:101C90002D2007E02068810701D52B2002E02021BC
:101CA00001EAC000032A099001D0072A05DB034698
:101CB0004146204601F0CEFE0BE12078800601D59A
:101CC000E06900E00620B8F1650F814606D0B8F162
:101CD000660F18D0B8F1670F70D131E00020B9F16C
:101CE000110F009001DB112301E009F101030AAAA1
:101CF00001A90CA8FFF7E2FEDDE90C70002609F14E
:101D00000105834647E001204B4600904FF0004715
:101D10000AAA01A90CA8FFF7D1FEDDE90DB00C99C4
:101D20005D46002610B909F101000D18B9EB050058
:101D300003D4C0F1FF3609F10105A5EB09002BE042
:101D4000B9F1010F01DA4FF001090020B9F1110FCB
:101D50000090484601DD112300E003460AAA01A9CC
:101D60000CA8FFF7ABFEDDE90C704D46002683465C
:101D7000207800070AD4AB4500DA5D4601A8012DA2
:101D800004DD411911F8011C302907D04F4502DA52
:101D900017F1040F04DA012082460FE06D1EEEE712
:101DA000002F02DCED1B3E4403E0781CA84200DD5E
:101DB0007D1CB81B00F1010A4FF000472078000796
:101DC00003D4AA4501DB4FF0FF3A0021B7F1004FE1
:101DD0000DF143088DF8431024D002202B23002F4F
:101DE00001DA7F422D230A21021EA0F1010000DC4E
:101DF0005FB197FBF1FC97FBF1F201FB1C7C1746EE
:101E00000CF1300C08F801CDEEE7A8F101000370E9
:101E10002188090501D5452100E06521A0F10108CF
:101E200000F8011C09980FA9A1EB0807FF1D00B1DC
:101E30000120411901EBEA70A1693844081A401EDB
:101E4000A0612078C00602D42046FFF785FD0998DE
:101E500028B1D4E901219047206A401C20622078F3
:101E6000C00622D52046FFF777FD1EE0002E04DBDA
:101E7000B34502DD01A8805D00E03020D4E90121F6
:101E80009047206A401C2062761CAAF101005FEA9C
:101E9000000A0AD1FFF7A0FCC0680168405CD4E9E1
:101EA00001219047206A401C2062281EA5F10105EF
:101EB000DCDC07E0D4E9012118F8010B9047206A27
:101EC000401C2062381EA7F10107F3DC2046FFF713
:101ED00059FD032011B041E601694A1C02610878EE
:101EE000704700B58FB0CDE901310021059105495A
:101EF0007944CDE9031011466846FEF78BFC0FB01C
:101F000000BD0000E5FFFFFFD1E900239A4202D2A5
:101F1000531C0B60107070472DE9FF5F15468A4611
:101F20000446DFF8AC80F8440027D8E900103E46AC
:101F3000CDE9001010E03AF816106A4602A801F048
:101F400050FA411C07D02178890603D5E269391877
:101F500091420DD80744761C2078800602D5E069AE
:101F6000B84205DDAE42E6DB3AF816000028E2D1C1
:101F7000A069C01BA0612046FFF7EEFCD8E9001065
:101F8000CDE90010002017E03AF818106A4602A8C0
:101F900001F027FAB0F1FF3F81460BD000250DF18B
:101FA000080B05E0D4E901211BF8050090476D1CE2
:101FB0004D45F7D308F10100B0428046E4DB206ACA
:101FC000384420622046FFF7DDFCBDE8FF9F00009B
:101FD0001E9F01002DE9F0418046D21D22F007022C
:101FE0000025D2E90002F52915A614D0011E72F1D0
:101FF000000106DA0023D0EB030063EB020211A616
:1020000008E0D8F800108B0701D50FA602E04907B9
:1020100001D50EA601251146002408F1240704E08D
:1020200001F0EDFA30323A55641C50EA0102F7D162
:102030002B46324621464046BDE8F04101F02DBB1B
:10204000000000002D0000002B0000002000000018
:1020500030B4002100F1240408E002F00705D208A2
:10206000303542EA4372DB086554491C52EA0305E5
:10207000F3D10468002310A2250708D504F020043A
:102080000C4304D0C46901230CA2641EC46130BC9B
:1020900001F003BB10B5044621461068FFF78CFC25
:1020A00002462046BDE810400023D1E7D21D22F0B1
:1020B0000701D1E90023CBE7000000003000000059
:1020C000F0B40D460188090502D5214C7C4402E09C
:1020D0001F4C7C440E34002100F1240608E002F07D
:1020E0000F071209E75D42EA03721B097754491C86
:1020F00052EA0307F3D102780023120704D5702DAA
:1021000006D009B1022311342246F0BC01F0C5BA51
:1021100001231034F8E770B504460D4621461068D7
:10212000FFF74AFC024629462046BDE870400023DE
:10213000C6E7D21D22F00703D3E90023C0E70368F6
:10214000126843F0200303600823C3610023B7E74C
:10215000809D01002DE9FF4F1C4691464FF0FF3551
:1021600081B000218A468846D4E90167A1690298B6
:102170006D1C8847216A834688470028F6D1BBF149
:10218000FF3F0CD0002F26F4C0661ADD700615D56F
:10219000BBF12B0F0AD0BBF12D0F0FD104E04FF094
:1021A000FF3005B0BDE8F08F46F48066A169029863
:1021B0006D1C88477F1E8346002F02DDBBF1300F68
:1021C00003D0B9F1000F2AD025E0A1696D1C029857
:1021D0007F1E46F400768847002F834605DDBBF15D
:1021E000780F06D0BBF1580F03D0B9F1000F10D013
:1021F00011E0B9F1000F02D0B9F1100F0BD1A169B4
:102200006D1C02987F1E26F40076884783461020B6
:1022100000E0082081464FEAE970009017E00A20AC
:10222000F8E74346AAFB0928DDF800C07F1E03FB40
:10223000098046F4007605F101050AFB0C0112EB5A
:102240000B0A029841EBEB78A16988478346002F7F
:1022500006DD4946584601F07BFC5FEA000BE0D5FD
:10226000E16902988847B00502D46FF0010098E751
:10227000F00718D1700610D55146700505D500231A
:10228000D1EB030163EB080200E042462068031D26
:1022900023600068C0E9001205E02068011D21608C
:1022A0000068C0E900A828467BE72DE9FF5F1D46CE
:1022B0004FF0FF3B91464FF000085F46D5E90146DD
:1022C000A96901987F1C8847296A824688470028A7
:1022D000F6D1BAF1FF3F0CD0002E24F4C06419DD12
:1022E000600614D5BAF12B0F09D0BAF12D0F0ED11B
:1022F00003E0584604B0BDE8F09F44F48064A96947
:1023000001987F1C8847761E8246002E02DDBAF1B6
:10231000300F03D0B9F1000F26D032E0A969761E44
:1023200001987F1C44F400748847002E824605DD26
:10233000BAF1780F06D0BAF1580F03D0B9F1000FF7
:1023400010D01EE0B9F1000F02D0B9F1100F18D172
:10235000A969761E01987F1C24F400748847824680
:10236000102002E0082000E00A20814609E0A96967
:1023700008FB0908761E01987F1C44F40074884706
:102380008246002E05DD4946504601F0E1FB00285B
:10239000EDDAE96901988847A00502D46FF00100E1
:1023A000A8E7E00725D1600613D5600502D5C8F17E
:1023B000000000E0404629680A1D2A6009682205DD
:1023C00001D5087015E0220701D5088011E00860EA
:1023D0000FE02868011D29600068210502D580F8FA
:1023E000008006E0210702D5A0F8008001E0C0F8D7
:1023F000008038467EE72DE9FF5F4FF000089946E0
:10240000144646469169D2E901A7DDF838B0019833
:102410008847054659EA0B0005D009E0A1690198F3
:10242000761C88470546216A284688470028F5D14A
:10243000681C03D05FEACA7005D015E04FF0FF308A
:1024400004B0BDE8F09F2068011D2160D0F8008035
:102450000AE05FEACA7001D108F8015BA169761C45
:1024600001987F1E88470546002F1ADD681C18D08A
:10247000B9F1000F0DD0E81705EBD060421120F044
:102480001F0059F822102A1A012090400142E0D181
:1024900007E0BBF1000FDCD12846216A88470028FD
:1024A000D7D0E16901988847BBF1000F07D1002E12
:1024B00005DD5FEACA7002D1002188F80010A0682B
:1024C000B84203DDBBF1000F03D017B16FF001007C
:1024D000B6E73046B4E700002DE9FF4F06468BB063
:1024E0000878FF2806D0491C2D2805D000244FF07D
:1024F000000908E000200CE00124F8E709EB89035B
:10250000491C00EB43090878FF28F7D114B1C9F141
:1025100000008146107800252C46AA4629462D2821
:1025200001D02B2804D1521C2D2813D00020824624
:102530008B461078FF280FD04FF0000C0A21521C58
:10254000A5FB017804FB018105FB0C11C5194BEBC0
:102550000104EEE70120EAE7002108464FF0000001
:10256000BAF1000F02D000EB80004008C0F38157A1
:10257000012F01DD4FF0FF370E9955EA040009EBFA
:1025800001080BD04FF0020918F5FA7F16DA4FEA6E
:10259000CA70002F706008DD012007E04FEACA70A2
:1025A000C6E900B00FB0BDE8F08F00203060FDF745
:1025B000BDFFC0F800901821084616E0B8F5FA7F74
:1025C00018DD002F02DAF748784401E0F648784435
:1025D000D0E90010C6E9001040EACA707060FDF74B
:1025E000A5FFC0F80090142108460FB0BDE8F04FD9
:1025F00019F09CBB002108464FF00000B8F1000123
:10260000099002DAC7F1000200E03A4601DAC8F1A7
:10261000000106A801F0D4FC06AB93E8070003AB69
:1026200083E8070044F23E005BEA0401009058464C
:1026300004D144F21E012C465D460091210C090490
:10264000014306D10099240444EA15442D041039AD
:10265000009104F07F41014306D10099240244EA2D
:1026600015642D020839009104F07041014306D130
:102670000099240144EA15742D01091F009104F00A
:102680004041014306D10099A40044EA9574AD008D
:10269000891E009104F00041084304D100986D198F
:1026A0006441401E00904FF001033A466846B8F17D
:1026B000000FCDE9014503A902DD18F0CCFD01E0D2
:1026C00018F09FFDBAF1000F04460D4601D084F0CA
:1026D0000044002108464FF00000099940F2FF77BE
:1026E000484010F00C0F07D124F00040284303D0DD
:1026F000C4F30A50B84212D1FDF718FFC0F8009099
:10270000C4F30A50B8420AD1A8487844D0E900106E
:10271000C6E9001004F000410843706042E7C6E9D2
:1027200000543FE72DE9FF4F1F464FF0000A4FF0DE
:10273000FF38454691B0D7E90146CDF83CA0FFF7F8
:102740004BF8C0680168405C1090B96912986D1C24
:102750008847396A814688470028F6D1B9F1FF3F9A
:102760000AD0002E24F4D06411DDB9F12B0F08D06B
:10277000B9F12D0F0BD102E0404615B013E744F438
:102780008064B96912986D1C8847761E8146600581
:1027900004A901D52D2000E02B20002E01F1010B12
:1027A0000DF130088DF810003FDDB9F1690F08D048
:1027B000B9F1490F05D0B9F16E0F02D0B9F14E0F42
:1027C0001CD13B4601A8009580E85002DDE91212B9
:1027D0006FF0020019F015FBC11CCED10EE0B969F3
:1027E00012986D1C884781461398761E44F4007435
:1027F00005600F98401C002E0F9016DDB9F1300FC8
:10280000EDD0B9F1780F02D0B9F1580F0DD10F9872
:1028100001280AD13B46CDE90054DDE91212001F20
:10282000029619F0ECFAC11CA7D1109989453ED146
:1028300044F0800406E01399681CAAF1010A44F4EC
:1028400000740860B9696D1C1298761E884730289C
:102850008146F0D02BE01099894505D1200603D49C
:10286000761E44F0800418E0484618F06CFF08B368
:10287000761E0DF123029345A9F1300044F4007453
:1028800006D20BF8010B200607D5AAF1010003E0E0
:10289000200602D40AF101008246A00502D5139950
:1028A000681C0860B96912986D1C88478146002E23
:1028B000D1DC53E0002E51DDB9F1650F02D0B9F142
:1028C000450F4BD1A00549D5B9696D1C1298761EEC
:1028D00024F440748847002E81460CDD2B2804D058
:1028E000B9F12D0F07D144F48074B96912986D1CA9
:1028F0008847761E8146E00501D52D2100E02B2179
:1029000008F8011BCDF8008021E0761E0DF1390199
:10291000884544F400740CD2A9F1300010F0FF0097
:1029200088F8000002D10099884509D908F101080A
:1029300006E0E00501D51E4801E042F20F70824634
:10294000B96912986D1C8847814613980560002E5E
:1029500004DD484618F0F7FE0028D6D1F969129830
:102960008847FF2053468BF8000088F800000020BD
:102970000A900B9004AA0CA90AA8FFF7ADFDA005C8
:1029800002D46FF00100F8E614F0240F12D0E00733
:102990001CD13868DDE90A12031D3B600068C0E9FC
:1029A000001213E0A8B801009AB801005EB7010058
:1029B000F1D8FFFF0AA9684618F0B2FEE00705D17A
:1029C0003868009A011D3960006802602846D4E624
:1029D000026811441378016018467047D1600549B8
:1029E0007944516104497944116200211161114611
:1029F00001F0BCB8EDFFFFFF9F0C0000426842B140
:102A0000016811F8013B23B1521EC0E900121846BB
:102A100070470121C160881E704742685AB1C3687F
:102A2000016843B983688B4205D0491E521CC0E936
:102A30000012002070474FF0FF3070470FB40B00BA
:102A400010B54FF000048AB00FA900910E99CC6028
:102A5000234C7C44234A7A44CDE9064200D0042327
:102A60006FF00042CDE901321F4A7A446B4608926A
:102A70000246002019F0C1F90AB010BC5DF814FB41
:102A8000F0B507464FF0FF301E4615460C463B4654
:102A900085B06A460091CDE90101314600200490DD
:102AA00004A8FFF7CBFF04990346601825B109B1CC
:102AB000024600E022462A6000290ED0002B02DDEB
:102AC0000099814209D03B466A463146001B00947A
:102AD000CDE9010404A8FFF7B1FF05B0F0BD000087
:102AE000A7FFFFFFC1FFFFFF1B0C000000230360D7
:102AF000FFF7C6BF2DE9F04791460E4680460446D3
:102B0000002514F8017B2FB1FDF708FD0068C05DBA
:102B1000C007F6D12B2F02D02D2F1ED0641E4A469F
:102B20003146204601F0DCF926B13268A24201D1DB
:102B3000C6F800804FF002046A0518D50023D0EBD8
:102B4000030563EB01025D1B934109DB0023D0EB1E
:102B5000030063EB0101BDE8F08745F48065DEE723
:102B6000FDF7E4FC046000204FF00041F3E7021E93
:102B700071F10002EFDAFDF7D9FC04604FF0FF308D
:102B80004108E8E72DE9F05F93460F46804604468A
:102B90000026FDF7CBFCD0F80090824614F8015BCC
:102BA0002DB1FDF7BBFC0068405DC007F6D12B2DB1
:102BB00002D02D2D1FD0641E0021CAF800105A46E5
:102BC0003946204601F08CF9024627B13868A04208
:102BD00001D1C7F80080DAF8000002280ED0CAF848
:102BE000009070050AD500200346D2EB000063EB8D
:102BF0000101BDE8F09F46F48066DDE71046F8E786
:102C00002DE9FF4F4FF000089A461446C14646464C
:102C100083B0D2E901B7CDF80080CDF80480916986
:102C200004988847109905465AEA010005D009E042
:102C3000A1690498761C88470546216A284688477A
:102C40000028F5D1681C03D05FEACB7005D02AE0DC
:102C50004FF0FF3007B0BDE8F08F2068011D216004
:102C6000D0F800801FE002A86A46E9B200F099FBA4
:102C7000411C07D0801C09D04FF000095FEACB70DF
:102C800007D00AE0E169049888473EE04FF0010967
:102C900004E0BDF8081028F8021B7F1EA169049803
:102CA000761C88470546002F1ADD681C18D0BAF13B
:102CB000000F0DD0E81705EBD060421120F01F0087
:102CC0005AF822102A1A012090400142CBD107E085
:102CD00010980028C7D12846216A88470028C2D00A
:102CE000E16904988847B9F1000F0ED1109830B906
:102CF000002E04DD5FEACB7001D1A8F80000A068C7
:102D0000B84202DD109818B117B16FF00100A1E7C9
:102D100030469FE72DE9FF4F4FF000089B461446D1
:102D2000454683B0D2E90196CDF80080CDF8048005
:102D30009169DDF848A00498884707465BEA0A00D5
:102D400005D009E0A16904986D1C88470746216AEF
:102D5000384688470028F5D1781C03D05FEAC9704F
:102D600005D01BE04FF0FF3007B0BDE8F08F2068C2
:102D7000011D2160D0F8008010E05FEAC97007D122
:102D80006A464046B9B200F02CFB411C31D0804469
:102D9000A1696D1C0498761E88470746002E14DD35
:102DA000781C12D0BBF1000007D03B46DDE91012C1
:102DB00001F0F7F80028E0D107E0BAF1000FDCD10C
:102DC0003846216A88470028D7D0E16904988847A7
:102DD000BAF1000F06D1002D04DD5FEAC97001D100
:102DE00088F80000A068B04203DDBAF1000F03D0FC
:102DF00016B16FF00100B7E72846B5E72DE9FF5F90
:102E00009B46144600273D469169D2E90196DDF8BC
:102E100040A00198884780465BEA0A0005D009E097
:102E2000A16901986D1C88478046216A4046884701
:102E30000028F5D1B8F1FF3F03D05FEAC97005D093
:102E400014E04FF0FF3004B0BDE8F09F2068011D92
:102E5000216007680AE05FEAC97001D127F8028B98
:102E6000A1696D1C0198761E88478046002E15DDED
:102E7000B8F1FF3F12D0BBF1000007D04346DDE9B7
:102E80000E1201F08EF80028E5D107E0BAF1000F2C
:102E9000E1D14046216A88470028DCD0E1690198E9
:102EA0008847BAF1000F05D1002D03DD5FEAC97034
:102EB00000D13880A068B04203DDBAF1000F03D022
:102EC00016B16FF00100BEE72846BCE72DE9F05FC0
:102ED000054617460C46C86820F4201040F48000D0
:102EE000C860800602D5084600F045F9E06841F266
:102EF00082014FF0FF3A0140022903D0204600F042
:102F0000D7F8B9E000F42041B1F5004F0FD1C0036C
:102F100006D56168E06A884200D80846606006E02D
:102F20002069E06260606069FEF747FCA061A0680C
:102F30000022EEB200280DDAE1688B050AD4C04306
:102F4000A06041F490302260E0606068411C6160E4
:102F50000670AAE0E0689146226040F40050E0600C
:102F6000206978BB6069FEF71AFC04F124054FF074
:102F70000108A8B1A08910F4407F08D0E069FDF7EE
:102F8000D9FA206118B1E06840F4006017E0C4F895
:102F90001C802561E06820F4407040F480600EE001
:102FA000E069FDF7C7FA00282061F0D0E06840F43E
:102FB000006010F4407FE06002D140F48070E06077
:102FC00020696060E06825696FF0010BC1051ED5BE
:102FD0006168E06A884200D80846411B04D0224656
:102FE000284600F06FF8E8BB1FB1E562C4E901595B
:102FF00059E0681CE0626060E069401EA060E06823
:1030000040F48030E06030462E70BDE8F09F17B18C
:1030100000F480320AE06068411C61600670E0687C
:103020000A2E40F48030E06006D00022E16A606839
:10303000814203D90B4602E00122F7E70346B4F8C8
:103040000CC05B1B5FEA4C5C04D4D4F81CC09C45EC
:1030500000DD02B3814200D80146002BA1EB00083D
:10306000E56200E008E0C4E9015907DD224619469F
:10307000284600F027F808B15046C6E7B8F1000F1F
:1030800009D0A169E5626560A1EB0800A061E06874
:1030900040F01000E06047B16168A069E562491B3B
:1030A00008446560A0615846AFE73046ADE70000D0
:1030B000C16821F4001141F08001C16000218160EC
:1030C000016070472DE9F74F15460C464FF0FF3B66
:1030D0003848D768D2F814A0074209D05046A969E9
:1030E000FEF763FB002819DB3248C0430740EF605E
:1030F0004FF000496FF000484C4501D3464600E0D0
:10310000264600993B4650463246FEF739FBA969F0
:1031100020F00042B21A1144A96128B12846FFF7F5
:10312000C7FF5846BDE8FE8FA41BE5D10020F9E794
:1031300070B504460569C06A6168884200D80846CF
:10314000E16821F42011E160C90312D5A84208D03A
:103150002246411B2846FFF7B5FF10B14FF0FF3064
:1031600070BD0020E562C4E90150E06820F48030C1
:10317000E060002070BD10B50446C06820F020005B
:10318000E060A16AA06988420DD02046FFF7D0FF19
:10319000E06820F4405040F01000E060A06AA061B8
:1031A0002069E062606044F24001E0688843E060CA
:1031B00010BD00001000020010B542485421FDF778
:1031C0006DF941485421FDF769F940485421FDF754
:1031D00065F93F493B483C4A3F4B08603D490A601E
:1031E0003A491960531C0365481C106501200865A5
:1031F0003B48344A39A17844FDF702FD20B93848EC
:1032000078440A3801F011F937482F4A35A178443B
:10321000FDF7F6FC20B9344878440A3801F005F986
:1032200032482A4A2FA17844FDF7EAFC20B92F48FA
:1032300078440A3801F0F9F840232248DC000021E4
:10324000224601F054F820B125487844543801F062
:10325000ECF81D4822464023002101F048F820B137
:1032600021487844543801F0E0F8184822461023E9
:10327000002101F03CF8002806D01C487844BDE845
:103280001040563801F0D1B810BD104870B5006D2F
:1032900020F001040B48FDF72BFD0B48FDF728FD3E
:1032A0000A48FDF725FD09E0206D20F001052046C4
:1032B000FDF71EFD2046FDF76CF92C46002CF3D1DE
:1032C00070BD000068000020BC000020100100203C
:1032D0000000002004000020080000207200000010
:1032E0007E8C0100770000006A8C0100568C010082
:1032F0002DE9F8439946174680464FF000060C002A
:1033000002D18846012717A4B9F1000F25D1052164
:103310000020AFF3008081461FE014F8011B4A46ED
:10332000684600F03EF8761C0546401C0FD0AD1CE8
:1033300013D0B8F1000F03D0BDF80010A8F80010AA
:10334000BDF80000002800D03046BDE8F883FDF746
:10335000EDF8042101602846F7E77F1EDDD26FF00B
:103360000100F2E7000000007CB50C46054622B9DA
:1033700006210020AFF3008002462146684600F097
:1033800030F80446401C07D025B12246694628463D
:10339000FDF764FE20467CBDFDF7C8F804210160FE
:1033A000F8E7F8B516460C460546FDF7B7F803688A
:1033B00093F80101012804D0185D78B101202C8018
:1033C000F8BDD3F803013246214603F20313C718B0
:1033D00068460023B84700992980F8BD4FF0FF30B8
:1033E000F8BD2DE9F04116460C460546FDF796F866
:1033F000036893F80101012807D0FF2C12D8185D4B
:1034000080B101202C70BDE8F081D3F8070132466D
:10341000214603F20713C7182846BC46BDE8F04111
:10342000002360474FF0FF30EDE710B5002000F0BB
:10343000F5FFFCF760FFBDE81040012000F086B802
:103440002DE9F0410646FEF7CBF98046454613E0EC
:1034500016B1E068B0420ED120682860D4E90101BD
:10346000D8F8007088472046FDF793F8D8F8000098
:10347000B842EBD100E025462C68002CE8D1BDE82D
:10348000F08170472DE9FC4704464FF0FF39007B7F
:10349000400629D4D4E90E01CDE90001FDF771FD04
:1034A000012507464FF0040804F1400A2EE0216888
:1034B00000291BDC94F8480050B1C0B2401EC0B2D5
:1034C00084F8480004EB4000B0F84000BDE8FC87F9
:1034D0000021204600F015FE0646E068010603D4F0
:1034E000400609D5012D24DC4846EFE76068421C00
:1034F00062600678491E21606A465046F1B2FFF7C5
:1035000050FF01281AD0401C02D06D1CBD42CEDDF8
:103510006A46D4E90E01CDE900015046F1B2FFF749
:1035200040FF401C05D02068401C20606068401EA1
:103530006060FCF7FBFFC0F80080D5E784F84950D5
:10354000DDE90001E4E90E012089BFE70149182007
:10355000ABBEFEE72600020070477546FEF734F961
:10356000AE4605006946534620F00700854618B070
:1035700020B5FCF7E5FEBDE820404FF000064FF017
:1035800000074FF000084FF0000BAC46ACE8C00954
:10359000ACE8C009ACE8C009ACE8C00921F00701FB
:1035A0008D467047034640688C46002818BF884205
:1035B0003CBF03464068F8D318681844884207D0D7
:1035C0000CF1030020F00700001D411A521A0146B9
:1035D000081D0A60FCF7DDBFB2F120030AD5C2F175
:1035E000200301FA02F120FA03F341EA030100FA91
:1035F00002F0704700FA03F14FF00000704730B559
:10360000B0F10A0271F100034FEA900E4EEA817E9A
:10361000B0EB0E0061EB91014FEA101E4EEA017E05
:1036200010EB0E0041EB11114FEA102E4EEA016E25
:1036300010EB0E0041EB11214FEA104E4EEA014E05
:1036400010EB0E0041EB1141401841F100014FEA2F
:10365000D00040EA41704FEAD1014FEA810444EAC8
:10366000907410EB800544EB01046D1944EB0404E5
:10367000521BA3414FF0000348BF0A3200D530BDB2
:10368000401C41F1000130BD10B50446FCF746FF77
:103690000068005D00F0010010BD2DE9F0470D4607
:1036A00099469246044600F124080168880604D52C
:1036B000E06921F01001216000E00120A84201DD55
:1036C000471B00E00027A1697A1902EB0900081ADC
:1036D000A0612078C00602D42046FEF73DF90026FE
:1036E00008E0D4E901211AF806009047206A401C3E
:1036F000761C20624E45F4DB2078C0060AD52046B1
:10370000FEF72AF906E0D4E9012130209047206A2B
:10371000401C2062381EA7F10107F4DC07E0D4E961
:10372000012118F805009047206A401C2062281EDD
:10373000A5F10105F3DC2046FEF724F92078000608
:1037400002D50220BDE8F0870120FBE72DE9F04F0C
:1037500004460D46D21D22F0070089B0D0E900973B
:103760004846394617F0C0FE0246F80F01D02D2317
:1037700007E02068810701D52B2302E0202101EA20
:10378000C0038DF820300BB1012000E00020032A97
:10379000824601D0072A04DB2946204600F05AF968
:1037A0003FE12078800601D40D2500E0E569C7F3EC
:1037B0000A560D2D49DA00214FEA175B08464FF0F3
:1037C0000000002F00F4400007DA00EB80004FF407
:1037D000400100EBD07001EA60008115012901DD94
:1037E0004FF0FF3100224FEA850CBCF1180F06D3D1
:1037F0001346ACF118004FF08052C24003E04FF482
:10380000801323FA0CF30CF10C0CBCF1200F04D341
:10381000ACF1200C09FA0CF001E007FA0CF00029D9
:103820004FF0004801DD18B90FE00ED140450CD330
:1038300019EB02095F4121B9404502D19F4329EAB2
:103840000209BBEB175F00D0761C2088000502D56B
:103850007B48784402E07A487844193808AA302333
:1038600002F80A30037C0AF10101002E0AF1020A73
:1038700053546A4602DC4FF0300101E04FF0310151
:103880004FF001088DF8001002D0A6F2FF3603E0D9
:1038900059EA470100D06B4E002D02DC2178090760
:1038A00004D54FF002082E218DF80110C4460021E6
:1038B0000BE0C7F303433F01C35C491C6D1E02F8D4
:1038C0000830052908F1010801DA002DF1DC00219A
:1038D0000CE000EB1973491C1B786D1E082902F8D7
:1038E00008304FEA091908F1010801DA002DF0DC6F
:1038F00021688B0602D516E0A8F10108E04505DD38
:1039000002EB080313F8013C302BF5D0B8F1000F9F
:1039100009DD02EB080313F8013C2E2B03D1090744
:1039200001D4A8F10108002D05DD3E2102F80810A0
:103930006D1E08F10108407C002E02F8080008F115
:10394000010804DA2D20764202F8080002E02B205C
:1039500002F808000A214FF47A70864208F1010843
:103960000BDB96FBF0F3303302F8083096FBF0F3F4
:1039700008F1010800FB136601E0642E0CDB6420F3
:1039800096FBF0F3303302F8083096FBF0F308F1C1
:10399000010800FB136601E00A2E06DB96FBF1F03E
:1039A000303002F8080008F1010896FBF1F001FB45
:1039B0001060303002F80800A16908F1010808EB36
:1039C000050202EB0A00081AA0612078C00602D4A2
:1039D0002046FDF7C1FF216A08AE01EB0A00206214
:1039E00004E0D4E9012116F8010B9047BAF1010A6D
:1039F000F7D22078C00602D52046FDF7ADFF6E460F
:103A000009E016F8010B3E280FD0D4E901219047B8
:103A1000206A401C2062B8F10108F2D22046FDF76E
:103A2000B1FF09B00320BDE8F08F206A284420626E
:103A300003E0D4E90121302090476D1EEBD3F8E775
:103A40004186010002FCFFFF0A6802F8010B0A60D0
:103A5000704700002DE9F0411F4604460326016827
:103A6000072A01F4006004DB08B116A505E016A5DD
:103A700003E008B115A500E015A521F010002060B5
:103A8000A069C01EA0610FB1401EA0612046FDF7D5
:103A900063FF4FB1D4E9012138469047206A401CAA
:103AA0002062C01C206206E0206AFAE7D4E9012106
:103AB00015F8010B9047761EF8D22046FDF762FFFD
:103AC000BDE8F0814E414E006E616E00494E4600E9
:103AD000696E660010B5436913B1AFF3008001E071
:103AE000FDF773FF012010BD127800F124010A7068
:103AF00000224A700122EDE711684FF0FF32E9E73A
:103B0000074B70B50D467B44FEF7EBF9044628469B
:103B100000F0CEFE10B14FF0FF3070BD204670BDFA
:103B2000657C010010B5436913B1AFF3008001E07B
:103B3000FEF7F2F9012010BD128800F12401828401
:103B40000022C2840122EDE711684FF0FF32E9E75D
:103B50003A2800D2303820F02002412A01D3A2F1C5
:103B60003700884201D34FF0FF3070472DE9F34F03
:103B70004FF0000A0C4656468DB001200C9001F122
:103B80000C000B9062690B9801219047051E2DD007
:103B9000252D2CD0216A8847C0B162690B9801217C
:103BA0009047216A88470028F7D16269411E0B9827
:103BB000904700E0761CA1690D988847216A8847E4
:103BC0000028F7D1E1690D988847DBE7A1690D98D6
:103BD0008847A842074601D1761CD3E7E1690D98D2
:103BE00088477F1C02D1BAF1000F6FD06BE1626988
:103BF0000B9800273D46394690472A2804D1626930
:103C00000B98012190470125DFF8D08262690B985B
:103C100001219047A0F130010A290AD24745E5DC8D
:103C200007EB870100EB4107303FDFD445F010057B
:103C3000ECE7E90601D46FF000476C280AD04C2865
:103C400014D0682815D06A280DD074281CD07A2882
:103C50001AD01DE062690B98012190476C2802D0B0
:103C600045F0040514E045F002050DE045F020059F
:103C70000AE062690B9801219047682802D045F05C
:103C8000080505E045F4006562690B98012190473D
:103C9000C4E9015765283DD019DC58287AD00CDCDE
:103CA000452837D004DC252826D041289ED131E094
:103CB00046282FD0472899D12CE05B2877D061285F
:103CC00028D063287CD0642823D15AE0F6E06F28FE
:103CD00048D008DC66281DD067281BD0692821D071
:103CE0006E2816D127E0702845D0732868D0752833
:103CF00047D078280DD14DE0A1690D988847252837
:103D000005463FF469AFE1690D9888476D1C3FF4A3
:103D10006AAFD8E00D9923466A466FF0010018F0AB
:103D20006CF8C5E045F0400023464FF000026060AB
:103D3000A80736D43EE0E8077FF447AF2068011DAE
:103D400021600068290501D506701BE7290701D508
:103D5000068017E7A90703D5F117C0E9006111E74D
:103D600006600FE745F0400023464FF00802606010
:103D7000A80716D41EE040F60E0125EA0100606097
:103D800016E045F0400023464FF00A026060A807A5
:103D900007D40FE045F040006060A80708D523462F
:103DA00010220D996FF00100FEF7D4F980E007E0D2
:103DB000102223460D996FF00100FEF776FA77E0A6
:103DC0004FF0000963284F46C8464B46CB4602D009
:103DD0005B2806D038E0E80601D40120A060012766
:103DE00032E06269D4F80CB00B98012190475E284C
:103DF00007D14FF0010949466269D4F80CB00B981D
:103E00009047216939B900210A4603AB43F82120C4
:103E1000491C0829FADBD8B3216949B308F1010824
:103E200062690B98012190475D28F4D1B9F1000F28
:103E300009D0002003A951F82020D24341F82020C6
:103E4000401C0828F7DB03AB2069002820794FEAE3
:103E500040701ED05B462246CDF80080CDE9019728
:103E60000D9900286FF0010020DAFEF7C7FF1FE070
:103E7000C11703AA00EBD1614B1121F01F0102EB26
:103E80008302411A13680120884003431360C7E787
:103E900019E00D99224600286FF00100009702DA20
:103EA000FEF7AEFE04E0FEF7A6FA01E0FEF732FFF1
:103EB00000280ADA401C06D10C9820B14FF0FF30E0
:103EC0000FB0BDE8F08F5046FAE7E90701D10AF1DB
:103ED000010A064400200C9054E60000CCCCCC0C27
:103EE0002DE9F74F4FF000091546CA46009C14F81B
:103EF000010B302801D0ADB115E014F8010B4FF0E3
:103F00000109782803D0582801D04DB10BE00DB13C
:103F1000102D08D14FF0000914F8010B102502E014
:103F2000082500E00A2500274FEAE57B3E46B84613
:103F300016E0A5FB07234FF0010905FB08000BFB6A
:103F40000731030C05FB0616D7181FFA80F846F157
:103F50000006381E76F5803000D3CA4614F8010BEF
:103F60002946FFF7F5FD0028E3DA019838B1B9F1E9
:103F7000000F01D0641E00E0009C01980460BAF1BB
:103F8000000F08D0FCF7D2FA02210160C81E0146DA
:103F900003B0BDE8F08F310441EA174148EA074019
:103FA000F6E710B508E030F8024B9C4204D10AB1A4
:103FB000002010BD012010BD491EF4D2104610BDD6
:103FC0002DE9F047814616468AB0354878440DC839
:103FD0008DE80D0032487844801C03AC0DC884E89D
:103FE0000D0041F69B300844372190FBF1F290FB25
:103FF000F1F5A5F1800501FB12041B3C02D56442DA
:10400000012000E00020DFF898A080460027FA4455
:10401000AAF1BE0A0EE0E0070AD03246684607EB76
:10402000470101230AEB810117F000F98DE8070031
:1040300064107F1C002CEED1194F7F44AE3F19E075
:10404000E80715D007EB04100DF1180A90E80E00F0
:104050008AE80E00C068F04201D1981908903246F3
:10406000012306A903A817F0E1F803AB83E80700D2
:104070006D10641C002DE3D14FF0010332466946F8
:10408000B8F1000F03A802D017F0A6F801E017F06E
:10409000CDF8C9E90001C9F808200AB0BDE8F087E9
:1040A000587F010070B50D4601461446D36850692B
:1040B0002A46FDF76DFB002807DA411C07D0E168AE
:1040C00020F0004041F48041E160281A70BD204694
:1040D000FEF7EEFF4FF0FF3070BDC16800220260B6
:1040E00021F4805141F0400111F4C06FC16001D052
:1040F0008260704702694168891AC269891A8160C1
:1041000070472DE9F05F04468946C06840F480009E
:1041100010F4C06FE06008D0204600F0CDFB2068AE
:10412000002802DD401E206033E0E068010312D564
:1041300020F40020E060810606D4E26A61688A42C9
:1041400000D80A46511A216040F40010E06094F84B
:104150002500BDE8F09F20F40010E060800602D545
:104160002046FFF708F8E06842F281014FF0FF3A7D
:104170000140012903D02046FEF79AFFB0E02168F4
:10418000002600290ADAC94340F480502160C4E9BE
:1041900002606068411C61600078DAE744F2400127
:1041A00008420CD020F4A04040F040002660E060BF
:1041B00021696068401AE169401AA06090E02169B5
:1041C00091B9C00310D4E069FCF7B4F92061B0B133
:1041D000E06840F4006010F4407FE06002D140F4F9
:1041E0008070E06020696060E068D4F814B0C106B7
:1041F0001AD5C0030ED52046FEF79AFF14E004F14D
:10420000240020610120E061E06820F4407040F467
:104210008060E6E721696068401AA1690144584658
:10422000FDF7C3FA0028A6DBE068C0032BD5616860
:10423000E06A884200D808462169451AE069471BB0
:104240001CD02046D4F81880FEF772FF08EB050159
:104250005846C4F81880FDF7A8FA00288BDBE06800
:10426000B9F1000F40F40030E06002D0A0692844AA
:10427000A061E1692069C91B45180DE02046FEF7E1
:1042800057FFE769F5E725696168D4E90607491B27
:10429000E56208446560A061E068B9F1000F20F0B4
:1042A000100040F48050C4E9026005D02069E0624B
:1042B00060606FF001004CE7224639462846FFF760
:1042C000F1FE411C0CD02918E16258B1401E20605B
:1042D000681C6060E06840F40030E060287838E7EF
:1042E000504636E765602046FFF7F7FEF8E770B501
:1042F000C468A50713D0650211D4B2F5807F09D038
:10430000B2F5007F06D0B2F5806F08D1012300F12D
:10431000240106E05D1E6FF07F46B54201D3012007
:1043200070BD0161C361416024F470611143C160DB
:10433000002070BD2DE9FF5F8B461C468246029D22
:1043400005FB0BF5E5B1D4F8088057464FF000099E
:10435000B8F1000044DCE069A84227D2B9F1000FAF
:1043600024D0224629463846A669FEF7ABFE58B14E
:10437000C4F80880A069801B3844A0EB0A0129E03A
:10438000002004B0BDE8F09FE16811F4C06F01D0D7
:10439000002008E022696068801AE269101AC903E7
:1043A000A06001D44042A0600298EAE7A84201D28E
:1043B000012200E0002221463878FEF787FD411CEB
:1043C00006D0D4F80880002807DB6D1E7F1C17E09C
:1043D000A7EB0A01B1FBFBF0D3E74FF001090FE0B7
:1043E000A842064600D92E46394632466068FCF798
:1043F00035FE6068AD1BA8EB0608304437446060AA
:10440000002DA5D1C4F80880CEE710B50446AFF35F
:1044100000802046BDE81040FBF77DBF10B500F0DE
:104420006DFABDE8104000F063BA10B500F07EFAF6
:10443000BDE8104000F05CBA10B500F091FABDE89C
:10444000104000F055BA10B5FCF770F8006810BDC8
:1044500010B50446FCF76AF8046010BD2DE9FF4F63
:104460001F464FF03C0987B04FF00042DDE91410C1
:1044700001F10108DDF858A002EA40500390002045
:1044800005908346054604460490B969461E08987F
:104490008847AAF1010A0290BAF1000F3BDD0298A9
:1044A0002E2815D01021FFF753FB00282EDB4FF0EC
:1044B000010B0599014317D0B9F1000F0BDB4A46F8
:1044C000C117FFF789F805430C43A9F1040905E07A
:1044D000012004900BE008B145F001050120059092
:1044E000049820B9361D02E0049800B1361FB9695E
:1044F000089808F101088847BBF1000FAAF1010AEA
:104500000290C9D00999C1F80080C5E702987028C7
:1045100008D0502806D0F96908988847BBF1000FE9
:1045200014D04FE0002002900120BBF1000F049056
:1045300009D0B969089808F101088847AAF101096A
:10454000B9F1000F07DCF969089888476FF001009E
:104550000BB0BDE8F08F2B2804D02D280CD14FF0E4
:10456000FF300490B969089808F101088847A9F15B
:104570000109B9F1000FE6DD411CE4D00A21FFF783
:10458000E7FA0028DFDB029908F1010801EB81015D
:1045900000EB41000290B969089888470A21FFF7AB
:1045A000D7FA099AA9F10109B9F1000FC2F8008000
:1045B00001DD0028E7DAF96908988847049902982C
:1045C00000FB016655EA040004D004F040410900F4
:1045D00002D006E0039898E0A40044EA9574AD0088
:1045E000B61E04F00041080002D16D196441761E28
:1045F000159810F0240F03D04FF00B095C4803E02E
:104600004FF028096FF07D008246564507DAAAEB85
:1046100006018944B9F1410F01DD4FF04109012044
:104620000021A9F10102FEF7D7FF024628400B4600
:104630002140084301D0012100E00021501E0291D9
:1046400043F1FF3128402140084301D0012000E020
:1046500000200299834651EA0B014FD00021084601
:104660004FF00000039900F4400039B100EB8000E6
:104670004FF4400100EBD07001EA60008015012882
:1046800002DD4FF0FF3000E013D0401C36D002981E
:1046900060B3BBF1000F0CD14A4601200021FEF7A8
:1046A0009BFF28402140084301D0012000E000206A
:1046B000E0B101204A460021FEF78EFF0346401973
:1046C0000A4661412D1A8C4111D3B9F1400F09DD21
:1046D000159810F0240F02D0AAF1340603E0AAF1D5
:1046E000170600E0761C00254FF0004406E05B1E34
:1046F00042F1FF3220EA030521EA0204CAF1010077
:10470000B04206DA1B49039808430190002000904C
:104710000EE0039AC4F3D321E80A0A43164940EA9B
:1047200044500A433146CDE90002684617F001F8CB
:10473000159810F0240F0BD01598C00715D13868C4
:10474000DDE90012031D3B600068C0E900120CE0C7
:1047500002A8694616F0E4FF1598C00705D138682D
:10476000029A011D3960006802604046F0E60000D0
:1047700002FCFFFF0000F07F0000F03F2DE9FF4F3B
:1047800092461D4685B04FF00041DDE9124BDDE950
:1047900014727F1E01EA4B50414940F0FF4940EA44
:1047A0000108002122F020004928049102D04E285F
:1047B00028D04CE03BA0012607C88DE80700A96976
:1047C0000698641C88477F1E014606D41DF8060023
:1047D00018B121F0200181420BD0E9690698884781
:1047E000032E34D0082E32D06FF0010009B0BDE89E
:1047F000F08F761C032E01D0082EE0D1601CCAF881
:104800000000DCE7A9690698641C88477F1E2AD44B
:1048100020F02000412826D1A9690698641C884709
:104820007F1E20D420F020004E281CD1A9690698B4
:10483000641C88477F1E48F4002849F48009CAF8A0
:10484000004001D4282806D0E969069888475FEA25
:10485000CB7012D022E0A9690698641C88477F1E9D
:1048600001D4002803DAE96906988847BCE72928BB
:10487000F1D1641CCAF80040E9E71BF0240F07D00F
:1048800028680499031D2B600068C0E9001805E042
:104890002868021D2A600068C0F800902046A5E73D
:1048A0000000F07F494E46494E495459000000002F
:1048B000007B00F08000704770B5054640F202268C
:1048C0000A4C0FE094F85000C00708D0AC4206D064
:1048D000E06836EA000002D12046FCF79BF8206D24
:1048E00020F00104002CEDD170BD00006800002014
:1048F000002801D0FEF72ABE7047000010B5002145
:1049000002A000F055F8012010BD000053494741B6
:104910004252543A2041626E6F726D616C20746530
:10492000726D696E6174696F6E00000010B50146AA
:1049300002A000F03DF8012010BD0000534947528D
:10494000545245443A2052656469726563743A2052
:1049500063616E2774206F70656E3A20000000005E
:1049600010B5012805D0002103A000F021F8012096
:1049700010BD09A1F8E7000053494752544D454D79
:104980003A204F7574206F662068656170206D65F0
:104990006D6F7279000000003A2048656170206DEB
:1049A000656D6F727920636F7272757074656400E3
:1049B00070B505460C460A2000E06D1C00F011F8A9
:1049C00035B128780028F8D102E0641C00F009F81D
:1049D00014B120780028F8D1BDE870400A20AFF368
:1049E000008008B569468DF800000320ABBE08BD05
:1049F00080B540F69050C2F2000000F023FB80BD6D
:104A000082B0019042F20030C4F20100009000999F
:104A1000486820F44030486001984268009948682E
:104A20001043486001980168486820F4807048602D
:104A3000019801680269486840EA022048600198CC
:104A40000168486820F040704860019801688268F9
:104A500048681043486001980168886820F4006045
:104A6000886001980168C26888681043886001986E
:104A7000806A0121C0F60071884219D0FFE70198D1
:104A80000168886820F07060886001980168826A17
:104A900088681043886001980168886820F0405059
:104AA000886001980168C26A8868104388600CE0D9
:104AB00001980168886820F070608860019801683A
:104AC000886820F040508860FFE701980168886896
:104AD00020F0020088600198027E0168886840EA40
:104AE00042008860019890F82000C8B1FFE7019863
:104AF0000168486840F400604860019801684868AF
:104B000020F46040486001980168426A4EF200005B
:104B1000CFF6FF7000EB423248681043486006E071
:104B200001980168486820F400604860FFE7019838
:104B30000168C86A20F47000C86201980168C269FF
:104B40000020CFF6F07000EB0252C86A1043C86232
:104B500001980168886820F400708860019890F8D6
:104B600030200168886840EA422088600198016826
:104B7000886820F4806088600198016842698868CC
:104B800040EA8220886002B070470000FFE7FEE73D
:104B900080B540F6D850C2F2000000F0BFFE80BDE4
:104BA00080B540F6D850C2F2000000F0B7FE80BDDC
:104BB00080B540F6D850C2F2000000F0AFFE80BDD4
:104BC00080B540F6D850C2F2000000F0A7FE80BDCC
:104BD00080B540F60060C2F2000000F09FFE80BD8C
:104BE00080B540F60060C2F2000000F097FE80BD84
:104BF00080B540F6A870C2F2000001F0BBFB80BD9A
:104C000080B541F20800C2F2000001F0B3FB80BDA4
:104C100080B540F62860C2F2000001F0ABFB80BD19
:104C200080B541F26800C2F2000001F0A3FB80BD34
:104C300080B540F6E860C2F2000001F09BFB80BD49
:104C400080B540F68860C2F2000001F093FB80BDA1
:104C500080B541F2C800C2F2000001F08BFB80BDBC
:104C600080B540F64870C2F2000001F083FB80BDC1
:104C700082B001900198007810384AF6AB21CAF64C
:104C8000AA21A0FB01100009009000994BF67A7050
:104C9000C0F60100405C0199C8650098042807D35C
:104CA000FFE701990868042262F30900886506E0BD
:104CB0000199086840F2FF3290438865FFE7019848
:104CC000806D02B07047000086B0059000208DF81E
:104CD00013000598806A03900598806910BBFFE770
:104CE0000398029003281BD80299DFE801F0020D17
:104CF0000218059890F82F00C00720B1FFE70120A7
:104D00008DF81300FFE70CE00598C06AB0F1C07F92
:104D100004D1FFE701208DF81300FFE701E000E078
:104D2000FFE745E005988069B0F5005F25D1FFE712
:104D30000398019003281ED80199DFE801F00206CC
:104D4000021101208DF8130016E0059890F82F004D
:104D5000C00720B1FFE701208DF81300FFE70BE04B
:104D60000598C06AB0F1C07F04D1FFE701208DF83B
:104D70001300FFE700E0FFE719E003980090032825
:104D800004D3FFE70098032804D00EE001208DF83B
:104D900013000BE0059890F82F00C00720B1FFE743
:104DA00001208DF81300FFE700E0FFE7FFE7FFE7D2
:104DB0009DF8130006B0704784B0039002910192F1
:104DC000009303980168086820F480200860009828
:104DD00003990968486003988068402809D1FFE773
:104DE0000198039909688860029803990968C86066
:104DF00008E0029803990968886001980399096896
:104E0000C860FFE704B070477047000072B6FFE764
:104E1000FEE7000081B0009001B0704785B00390BC
:104E2000029100200190FFE7039890F83C000128D0
:104E300004D1FFE702208DF81300F7E00399012069
:104E400081F83C00FFE7FFE7029800680A281CD3BE
:104E5000FFE70298008800EB4000A0F11E01072048
:104E600000FA01F203980168C8689043C86002998B
:104E70008868098801EB41011E3900FA01F20398A4
:104E80000168C8681043C86018E00298008800EB09
:104E90004001072000FA01F2039801680869904375
:104EA000086102998868098801EB410100FA01F262
:104EB00003980168086910430861FFE70298406899
:104EC00006281BD8FFE70298406800EB8000411FCE
:104ED0001F2000FA01F203980168486B9043486371
:104EE00002990888496801EB8101053900FA01F24D
:104EF00003980168486B104348633DE0029840689E
:104F00000C281CD8FFE70298406800EB8000A0F155
:104F100023011F2000FA01F203980168086B9043F7
:104F2000086302990888496801EB8101233900FA76
:104F300001F203980168086B104308631BE00298B4
:104F4000406800EB8000A0F141011F2000FA01F24F
:104F500003980168C86A9043C86202990888496842
:104F600001EB8101413900FA01F203980168C86A36
:104F70001043C862FFE7FFE742F20030C4F20100CD
:104F800000900398006842F20001C4F201018842D7
:104F90000BD1FFE702980068122806D1FFE70099BD
:104FA000486840F480004860FFE70398006842F2D8
:104FB0000001C4F2010188422ED1FFE70298006887
:104FC000102805D0FFE702980068112824D1FFE7D8
:104FD0000099486840F40000486002980068102872
:104FE00019D1FFE740F24000C2F2000000684DF620
:104FF0008361C4F21B31A0FB0110800C00EB800028
:1050000040000190FFE7019820B1FFE701980138C7
:105010000190F8E7FFE7FFE7FFE70399002081F839
:105020003C00FFE700208DF81300FFE79DF8130018
:1050300005B0704781B0009001B0704781B000901A
:1050400001B0704780B586B00590002004900390B1
:105050000598006800680290059800684068019013
:10506000029800F002000490019800F020000390E4
:10507000049800284AD0FFE70398002846D0FFE7AD
:105080000598006CC006002806D4FFE70599086C57
:1050900040F400700864FFE705980068806810F02D
:1050A000405F2AD1FFE70598007E30BBFFE70598F7
:1050B0000068C06A10F4700F07D0FFE70598006819
:1050C00080684005002818D4FFE705980168486803
:1050D00020F0200048600599086C20F48070086476
:1050E0000598006CC004002806D4FFE70599086CF9
:1050F00040F001000864FFE7FFE70598FFF79AFF1B
:10510000059801686FF012000860FFE7029800F050
:1051100004000490019800F0800003900498002897
:1051200058D0FFE70398002854D0FFE70598006C9B
:10513000C006002806D4FFE70599086C40F400502B
:105140000864FFE705980068806810F4401F38D1B4
:10515000FFE705980068806B10F4401F07D0FFE759
:10516000059800688068400500282AD4FFE7059864
:10517000006840684005002823D4FFE705980068D0
:10518000806810F0405F1CD1FFE70598007EC0B931
:10519000FFE705980168486820F08000486005999D
:1051A000086C20F4805008640598006CC005002845
:1051B00006D4FFE70599086C40F001000864FFE79A
:1051C000FFE70598FFF726FE059801686FF00C00D1
:1051D0000860FFE7029800F001000490019800F0D9
:1051E000400003900498C0B1FFE70398A8B1FFE71F
:1051F000059800680068C00770B1FFE70599086C62
:1052000040F480300864059800F07EF80598016845
:105210006FF001000860FFE7FFE7029800F0200050
:105220000490019800F0806003900498B0B1FFE70B
:10523000039898B1FFE70599486C40F00200486474
:10524000059801686FF02000009008600598FFF74E
:10525000F5FE0098059909680860FFE706B080BD73
:1052600080B584B0029000208DF80700029820B924
:10527000FFE701208DF80F0042E00298806A0121CB
:10528000C0F60071884201D0FFE7FFE70298006C8A
:1052900050B9FFE7029800F03BF8029900204864FB
:1052A000029981F83C00FFE70298006CC0060028D4
:1052B00017D4FFE70298006C40F0020020F48850F9
:1052C000029908640298FFF79BFB0299002048644A
:1052D0000298006C40F0010020F00200029908647E
:1052E00003E001208DF80700FFE7FFE702990020A7
:1052F00081F83C00FFE79DF807008DF80F00FFE7FD
:105300009DF80F0004B080BD81B0009001B07047DF
:1053100080B58AB00990002008900790069005900B
:1053200004900998006842F20021C4F20101884209
:105330003BD1FFE7FFE70020039043F64400C4F2AF
:105340000200016841F480610160006800F480603F
:1053500003900398FFE7FFE70020029043F6300038
:10536000C4F20200016841F020010160006800F011
:10537000200002900298FFE74FF480600490032021
:10538000059000200090069041F20040C4F2020017
:1053900004A901F099FA009A12200190114601F037
:1053A00071FD019801F064FDFFE70AB080BD0000C7
:1053B00084B002900191029890F820008DF80300CB
:1053C0009DF80300012805D0FFE79DF8030002289F
:1053D0000AD1FFE7019A02980168486910434861C1
:1053E00000208DF80F0008E00299486A40F4802000
:1053F000486201208DF80F00FFE79DF80F0004B010
:105400007047000088B006900591049203930698B7
:1054100090F820008DF807000698006880680090DA
:105420000598806808B9FFE700E0FFE79DF80700EE
:10543000012806D0FFE79DF80700022840F0808091
:10544000FFE79DF80300400700280CD4FFE79DF814
:1054500003000007002806D4FFE79DF80300C006FC
:10546000002864D5FFE70098C0F30160029002991C
:1054700001208840039908600598806868B9FFE7B3
:1054800005980168C06840EA415006990968029A87
:1054900001EB0211C1F880010EE005994A688868A5
:1054A000C96840EAC200084306990968029A01EBFC
:1054B0000211C1F88001FFE70598006906990968A3
:1054C000029A01EB0211C1F884010598007D0128C0
:1054D0000CD1FFE706980068029900EB0111D1F8A2
:1054E000840140F48070C1F88401FFE704984068AB
:1054F00006990968029A01EB0211C1F88C0104981F
:10550000006806990968029A01EB0211C1F8880146
:1055100006980068029900EB0111D1F8800140F073
:105520000100C1F8800100208DF81F0011E00699EC
:10553000486A40F40010486201208DF81F0008E01E
:105540000699486A40F48020486201208DF81F00C7
:10555000FFE79DF81F0008B07047000086B0049078
:105560000391049800680190049890F820008DF849
:1055700003009DF80300012806D0FFE79DF8030013
:10558000022840F0B080FFE746F20040C4F200007D
:1055900001900199D1F8000240F00100C1F8000229
:1055A0000199D1F8000220F47C50C1F80002039860
:1055B000426A0199D1F8000240EA0220C1F80002D3
:1055C0000398406900F01F01012088400290029A70
:1055D0000199D1F81C029043C1F81C020398C069DC
:1055E000F0B9FFE7029A0199D1F80C029043C1F893
:1055F0000C02039A9088D168526940EA01400199EF
:1056000001EBC201C1F84002039A10889168526907
:1056100040EA0140019901EBC201C1F84402FFE7F1
:105620000398C06901281ED1FFE7029A0199D1F8B9
:105630000C021043C1F80C02039A90881168526959
:1056400040EA0140019901EBC201C1F84002039A0E
:1056500090899168526940EA0140019901EBC201C9
:10566000C1F84402FFE70398806940B9FFE7029A56
:105670000199D1F804029043C1F8040207E0029AAC
:105680000199D1F804021043C1F80402FFE703981E
:10569000006940B9FFE7029A0199D1F814029043DA
:1056A000C1F8140207E0029A0199D1F814021043DC
:1056B000C1F81402FFE70398006A012808D1FFE748
:1056C000029A0199D1F81C021043C1F81C02FFE7AD
:1056D0000199D1F8000220F00100C1F80002002079
:1056E0008DF8170008E00499486A40F48020486269
:1056F00001208DF81700FFE79DF8170006B07047EE
:1057000081B0009001B0704786B00490039102927E
:105710000193049890F820008DF803009DF8030091
:10572000012806D0FFE79DF80300022840F0E8803A
:10573000FFE7039880B9FFE704980068C068800716
:1057400048B9FFE70499486A40F400104862012014
:105750008DF81700DDE00FE004980068006980070D
:1057600048B9FFE70499486A40F4001048620120F4
:105770008DF81700CDE0FFE704980068039900EB6F
:105780000110D0F8B00100F004000299886002987E
:10579000806858B9FFE704980068039900EB01108E
:1057A000D0F8B001400D029908600AE00498006842
:1057B000039900EB0110D0F8B001C00802994860CD
:1057C000FFE704980068039900EB0110D0F8B001DE
:1057D00000F002000299C86004980068039900EB89
:1057E0000110D0F8B40100F00F00082804D3FFE73F
:1057F0000299082008610BE004980068039900EB07
:105800000110D0F8B40100F00F0002990861FFE721
:1058100004980068039900EB0110D0F8B40180B23D
:10582000000A0299886104980068039900EB01104E
:10583000D0F8B401000C02994861049800680399FB
:1058400000EB0110D0F8B8010199087004980068C5
:10585000039900EB0110D0F8B801000A01994870D3
:1058600004980068039900EB0110D0F8B801000C0F
:105870000199887004980068039900EB0110D0F832
:10588000B801000E0199C87004980068039900EBF4
:105890000110D0F8BC0101990871049800680399BF
:1058A00000EB0110D0F8BC01000A0199487104987E
:1058B0000068039900EB0110D0F8BC01000C0199BD
:1058C000887104980068039900EB0110D0F8BC01BE
:1058D000000E0199C871039838B9FFE70498016870
:1058E000C86840F02000C86006E0049801680869B4
:1058F00040F020000861FFE700208DF8170008E065
:105900000499486A40F48020486201208DF817000D
:10591000FFE79DF8170006B07047000080B58AB019
:10592000099000200890099800684069079009983C
:10593000006840680690099800688068059009989A
:105940000068C0680490099800680069039009988D
:105950000068806902909DF81C00C007002800F0D4
:105960009480FFE79DF81400C00758B3FFE709983B
:105970000168012088609DF814008007002804D584
:10598000FFE7099800F046FC1BE09DF81400400773
:10599000002805D5FFE7089840F4006008900FE064
:1059A0009DF814000007002805D5FFE7089840F48B
:1059B0008050089003E0099800F028FCFFE7FFE71B
:1059C000FFE7FFE79DF81500C00760B3FFE7099800
:1059D00001684FF4807088609DF8150080070028EA
:1059E00004D5FFE7099800F01DFC1BE09DF81500A9
:1059F0004007002805D5FFE7089840F400500890BC
:105A00000FE09DF815000007002805D5FFE708986E
:105A100040F48040089003E0099800F0FFFBFFE7A6
:105A2000FFE7FFE7FFE79DF81600C00760B3FFE759
:105A3000099801684FF4803088609DF8160080074F
:105A4000002804D5FFE7099800F0F4FB1BE09DF85F
:105A500016004007002805D5FFE7089840F40040ED
:105A600008900FE09DF816000007002805D5FFE715
:105A7000089840F48030089003E0099800F0D6FBC5
:105A8000FFE7FFE7FFE7FFE7FFE79DF81C000007E0
:105A9000002810D5FFE79DF81000C006002809D5A2
:105AA000FFE7089840F400700890099801681020FA
:105AB000C860FFE7FFE79DF81C00400700280FD5EE
:105AC000FFE79DF810000007002808D5FFE70998B8
:105AD00001680820C860099800F0F0FAFFE7FFE7C6
